{
    "contractName": "SupplyChain",
    "abi": [
        {
            "constant": false,
            "inputs": [
                {
                    "name": "account",
                    "type": "address"
                }
            ],
            "name": "addConsumer",
            "outputs": [],
            "payable": false,
            "stateMutability": "nonpayable",
            "type": "function"
        },
        {
            "constant": false,
            "inputs": [
                {
                    "name": "_upc",
                    "type": "uint256"
                },
                {
                    "name": "_price",
                    "type": "uint256"
                }
            ],
            "name": "sellItem",
            "outputs": [],
            "payable": false,
            "stateMutability": "nonpayable",
            "type": "function"
        },
        {
            "constant": false,
            "inputs": [],
            "name": "kill",
            "outputs": [],
            "payable": false,
            "stateMutability": "nonpayable",
            "type": "function"
        },
        {
            "constant": false,
            "inputs": [
                {
                    "name": "_upc",
                    "type": "uint256"
                }
            ],
            "name": "processItem",
            "outputs": [],
            "payable": false,
            "stateMutability": "nonpayable",
            "type": "function"
        },
        {
            "constant": true,
            "inputs": [
                {
                    "name": "account",
                    "type": "address"
                }
            ],
            "name": "isRetailer",
            "outputs": [
                {
                    "name": "",
                    "type": "bool"
                }
            ],
            "payable": false,
            "stateMutability": "view",
            "type": "function"
        },
        {
            "constant": false,
            "inputs": [],
            "name": "renounceConsumer",
            "outputs": [],
            "payable": false,
            "stateMutability": "nonpayable",
            "type": "function"
        },
        {
            "constant": false,
            "inputs": [],
            "name": "renounceDistributor",
            "outputs": [],
            "payable": false,
            "stateMutability": "nonpayable",
            "type": "function"
        },
        {
            "constant": true,
            "inputs": [
                {
                    "name": "_upc",
                    "type": "uint256"
                }
            ],
            "name": "fetchItemBufferTwo",
            "outputs": [
                {
                    "name": "itemSKU",
                    "type": "uint256"
                },
                {
                    "name": "itemUPC",
                    "type": "uint256"
                },
                {
                    "name": "productID",
                    "type": "uint256"
                },
                {
                    "name": "productNotes",
                    "type": "string"
                },
                {
                    "name": "productPrice",
                    "type": "uint256"
                },
                {
                    "name": "itemState",
                    "type": "uint256"
                },
                {
                    "name": "distributorID",
                    "type": "address"
                },
                {
                    "name": "retailerID",
                    "type": "address"
                },
                {
                    "name": "consumerID",
                    "type": "address"
                }
            ],
            "payable": false,
            "stateMutability": "view",
            "type": "function"
        },
        {
            "constant": false,
            "inputs": [],
            "name": "renounceOwnership",
            "outputs": [],
            "payable": false,
            "stateMutability": "nonpayable",
            "type": "function"
        },
        {
            "constant": false,
            "inputs": [
                {
                    "name": "account",
                    "type": "address"
                }
            ],
            "name": "addDistributor",
            "outputs": [],
            "payable": false,
            "stateMutability": "nonpayable",
            "type": "function"
        },
        {
            "constant": true,
            "inputs": [
                {
                    "name": "_upc",
                    "type": "uint256"
                }
            ],
            "name": "fetchItemBufferOne",
            "outputs": [
                {
                    "name": "itemSKU",
                    "type": "uint256"
                },
                {
                    "name": "itemUPC",
                    "type": "uint256"
                },
                {
                    "name": "ownerID",
                    "type": "address"
                },
                {
                    "name": "originFarmerID",
                    "type": "address"
                },
                {
                    "name": "originFarmName",
                    "type": "string"
                },
                {
                    "name": "originFarmInformation",
                    "type": "string"
                },
                {
                    "name": "originFarmLatitude",
                    "type": "string"
                },
                {
                    "name": "originFarmLongitude",
                    "type": "string"
                }
            ],
            "payable": false,
            "stateMutability": "view",
            "type": "function"
        },
        {
            "constant": false,
            "inputs": [
                {
                    "name": "account",
                    "type": "address"
                }
            ],
            "name": "addFarmer",
            "outputs": [],
            "payable": false,
            "stateMutability": "nonpayable",
            "type": "function"
        },
        {
            "constant": false,
            "inputs": [],
            "name": "renounceFarmer",
            "outputs": [],
            "payable": false,
            "stateMutability": "nonpayable",
            "type": "function"
        },
        {
            "constant": true,
            "inputs": [
                {
                    "name": "account",
                    "type": "address"
                }
            ],
            "name": "isConsumer",
            "outputs": [
                {
                    "name": "",
                    "type": "bool"
                }
            ],
            "payable": false,
            "stateMutability": "view",
            "type": "function"
        },
        {
            "constant": true,
            "inputs": [],
            "name": "getOwner",
            "outputs": [
                {
                    "name": "",
                    "type": "address"
                }
            ],
            "payable": false,
            "stateMutability": "view",
            "type": "function"
        },
        {
            "constant": false,
            "inputs": [
                {
                    "name": "account",
                    "type": "address"
                }
            ],
            "name": "addRetailer",
            "outputs": [],
            "payable": false,
            "stateMutability": "nonpayable",
            "type": "function"
        },
        {
            "constant": true,
            "inputs": [
                {
                    "name": "account",
                    "type": "address"
                }
            ],
            "name": "isDistributor",
            "outputs": [
                {
                    "name": "",
                    "type": "bool"
                }
            ],
            "payable": false,
            "stateMutability": "view",
            "type": "function"
        },
        {
            "constant": true,
            "inputs": [],
            "name": "isOwner",
            "outputs": [
                {
                    "name": "",
                    "type": "bool"
                }
            ],
            "payable": false,
            "stateMutability": "view",
            "type": "function"
        },
        {
            "constant": false,
            "inputs": [
                {
                    "name": "_upc",
                    "type": "uint256"
                }
            ],
            "name": "receiveItem",
            "outputs": [],
            "payable": false,
            "stateMutability": "nonpayable",
            "type": "function"
        },
        {
            "constant": true,
            "inputs": [
                {
                    "name": "account",
                    "type": "address"
                }
            ],
            "name": "isFarmer",
            "outputs": [
                {
                    "name": "",
                    "type": "bool"
                }
            ],
            "payable": false,
            "stateMutability": "view",
            "type": "function"
        },
        {
            "constant": false,
            "inputs": [
                {
                    "name": "_upc",
                    "type": "uint256"
                },
                {
                    "name": "_originFarmerID",
                    "type": "address"
                },
                {
                    "name": "_originFarmName",
                    "type": "string"
                },
                {
                    "name": "_originFarmInformation",
                    "type": "string"
                },
                {
                    "name": "_originFarmLatitude",
                    "type": "string"
                },
                {
                    "name": "_originFarmLongitude",
                    "type": "string"
                },
                {
                    "name": "_productNotes",
                    "type": "string"
                }
            ],
            "name": "harvestItem",
            "outputs": [],
            "payable": false,
            "stateMutability": "nonpayable",
            "type": "function"
        },
        {
            "constant": false,
            "inputs": [
                {
                    "name": "_upc",
                    "type": "uint256"
                }
            ],
            "name": "purchaseItem",
            "outputs": [],
            "payable": false,
            "stateMutability": "nonpayable",
            "type": "function"
        },
        {
            "constant": false,
            "inputs": [],
            "name": "renounceRetailer",
            "outputs": [],
            "payable": false,
            "stateMutability": "nonpayable",
            "type": "function"
        },
        {
            "constant": false,
            "inputs": [
                {
                    "name": "_upc",
                    "type": "uint256"
                }
            ],
            "name": "buyItem",
            "outputs": [],
            "payable": true,
            "stateMutability": "payable",
            "type": "function"
        },
        {
            "constant": false,
            "inputs": [
                {
                    "name": "newOwner",
                    "type": "address"
                }
            ],
            "name": "transferOwnership",
            "outputs": [],
            "payable": false,
            "stateMutability": "nonpayable",
            "type": "function"
        },
        {
            "constant": false,
            "inputs": [
                {
                    "name": "_upc",
                    "type": "uint256"
                }
            ],
            "name": "packItem",
            "outputs": [],
            "payable": false,
            "stateMutability": "nonpayable",
            "type": "function"
        },
        {
            "constant": false,
            "inputs": [
                {
                    "name": "_upc",
                    "type": "uint256"
                }
            ],
            "name": "shipItem",
            "outputs": [],
            "payable": false,
            "stateMutability": "nonpayable",
            "type": "function"
        },
        {
            "inputs": [],
            "payable": true,
            "stateMutability": "payable",
            "type": "constructor"
        },
        {
            "anonymous": false,
            "inputs": [
                {
                    "indexed": false,
                    "name": "upc",
                    "type": "uint256"
                }
            ],
            "name": "Harvested",
            "type": "event"
        },
        {
            "anonymous": false,
            "inputs": [
                {
                    "indexed": false,
                    "name": "upc",
                    "type": "uint256"
                }
            ],
            "name": "Processed",
            "type": "event"
        },
        {
            "anonymous": false,
            "inputs": [
                {
                    "indexed": false,
                    "name": "upc",
                    "type": "uint256"
                }
            ],
            "name": "Packed",
            "type": "event"
        },
        {
            "anonymous": false,
            "inputs": [
                {
                    "indexed": false,
                    "name": "upc",
                    "type": "uint256"
                }
            ],
            "name": "ForSale",
            "type": "event"
        },
        {
            "anonymous": false,
            "inputs": [
                {
                    "indexed": false,
                    "name": "upc",
                    "type": "uint256"
                }
            ],
            "name": "Sold",
            "type": "event"
        },
        {
            "anonymous": false,
            "inputs": [
                {
                    "indexed": false,
                    "name": "upc",
                    "type": "uint256"
                }
            ],
            "name": "Shipped",
            "type": "event"
        },
        {
            "anonymous": false,
            "inputs": [
                {
                    "indexed": false,
                    "name": "upc",
                    "type": "uint256"
                }
            ],
            "name": "Received",
            "type": "event"
        },
        {
            "anonymous": false,
            "inputs": [
                {
                    "indexed": false,
                    "name": "upc",
                    "type": "uint256"
                }
            ],
            "name": "Purchased",
            "type": "event"
        },
        {
            "anonymous": false,
            "inputs": [
                {
                    "indexed": true,
                    "name": "account",
                    "type": "address"
                }
            ],
            "name": "RetailerAdded",
            "type": "event"
        },
        {
            "anonymous": false,
            "inputs": [
                {
                    "indexed": true,
                    "name": "account",
                    "type": "address"
                }
            ],
            "name": "RetailerRemoved",
            "type": "event"
        },
        {
            "anonymous": false,
            "inputs": [
                {
                    "indexed": true,
                    "name": "account",
                    "type": "address"
                }
            ],
            "name": "FarmerAdded",
            "type": "event"
        },
        {
            "anonymous": false,
            "inputs": [
                {
                    "indexed": true,
                    "name": "account",
                    "type": "address"
                }
            ],
            "name": "FarmerRemoved",
            "type": "event"
        },
        {
            "anonymous": false,
            "inputs": [
                {
                    "indexed": true,
                    "name": "_addr",
                    "type": "address"
                }
            ],
            "name": "AddingDistributorRole",
            "type": "event"
        },
        {
            "anonymous": false,
            "inputs": [
                {
                    "indexed": true,
                    "name": "_addr",
                    "type": "address"
                }
            ],
            "name": "RemovingDistributorRole",
            "type": "event"
        },
        {
            "anonymous": false,
            "inputs": [
                {
                    "indexed": true,
                    "name": "_addr",
                    "type": "address"
                }
            ],
            "name": "AddingConsumerRole",
            "type": "event"
        },
        {
            "anonymous": false,
            "inputs": [
                {
                    "indexed": true,
                    "name": "_addr",
                    "type": "address"
                }
            ],
            "name": "RemovingConsumerRole",
            "type": "event"
        },
        {
            "anonymous": false,
            "inputs": [
                {
                    "indexed": true,
                    "name": "oldOwner",
                    "type": "address"
                },
                {
                    "indexed": true,
                    "name": "newOwner",
                    "type": "address"
                }
            ],
            "name": "TransferOwnership",
            "type": "event"
        }
    ],
    "bytecode": "6080604081905260008054600160a060020a0319163317808255600160a060020a0316917f5c486528ec3e3f0ea91181cff8116f02bfa350e03b8b6f12e00765adbb5af85c908290a36200005c33640100000000620000ba810204565b62000070336401000000006200010c810204565b62000084336401000000006200015e810204565b6200009833640100000000620001b0810204565b60058054600160a060020a031916331790556001600781905560065562000295565b620000d56001826401000000006200187e6200020282021704565b604051600160a060020a038216907fc86b28215d4a96680e6a28ffaa92132d72fa991850a9f8662bf92f31223ceec990600090a250565b620001276002826401000000006200187e6200020282021704565b604051600160a060020a038216907fe52ca811996e29b62f0207ddc129a174b72947fa2d113ef5f214f1b7dcee260d90600090a250565b620001796003826401000000006200187e6200020282021704565b604051600160a060020a038216907f2e0ded4123377a3c2bc9a26f1717655a129e2f20752924d42e730ec89c83dbd090600090a250565b620001cb6004826401000000006200187e6200020282021704565b604051600160a060020a038216907f71ae26cad02663e3d92efd6ec56031a80d74a20c0ab4183faa8bf262261c9baa90600090a250565b600160a060020a03811615156200021857600080fd5b6200022d82826401000000006200025d810204565b156200023857600080fd5b600160a060020a0316600090815260209190915260409020805460ff19166001179055565b6000600160a060020a03821615156200027557600080fd5b50600160a060020a03166000908152602091909152604090205460ff1690565b6119dc80620002a56000396000f30060806040526004361061015e5763ffffffff7c0100000000000000000000000000000000000000000000000000000000600035041663112940f981146101635780632d9235611461018657806341c0e1b5146101a157806349dae766146101b65780635da09b88146101ce57806361e6982d14610203578063644241db1461021857806366225ff91461022d578063715018a61461032b5780637250e2241461034057806377c459131461036157806380c3f96d1461056357806380fc0ce414610584578063834ff73914610599578063893d20e8146105ba5780638ec4f505146105eb5780638f0c86fa1461060c5780638f32d59b1461062d578063a26be99914610642578063b94290691461065a578063bdd8a6a81461067b578063d38ea5bf146107dc578063db0e6a2f146107f4578063e7fb74c714610809578063f2fde38b14610814578063f30fc48014610835578063f61c899a1461084d575b600080fd5b34801561016f57600080fd5b50610184600160a060020a0360043516610865565b005b34801561019257600080fd5b50610184600435602435610885565b3480156101ad57600080fd5b5061018461094b565b3480156101c257600080fd5b5061018460043561096e565b3480156101da57600080fd5b506101ef600160a060020a0360043516610a2b565b604080519115158252519081900360200190f35b34801561020f57600080fd5b50610184610a44565b34801561022457600080fd5b50610184610a4d565b34801561023957600080fd5b50610245600435610a56565b604051808a81526020018981526020018881526020018060200187815260200186815260200185600160a060020a0316600160a060020a0316815260200184600160a060020a0316600160a060020a0316815260200183600160a060020a0316600160a060020a03168152602001828103825288818151815260200191508051906020019080838360005b838110156102e85781810151838201526020016102d0565b50505050905090810190601f1680156103155780820380516001836020036101000a031916815260200191505b509a505050505050505050505060405180910390f35b34801561033757600080fd5b50610184610b82565b34801561034c57600080fd5b50610184600160a060020a0360043516610bf0565b34801561036d57600080fd5b50610379600435610c0d565b6040518089815260200188815260200187600160a060020a0316600160a060020a0316815260200186600160a060020a0316600160a060020a0316815260200180602001806020018060200180602001858103855289818151815260200191508051906020019080838360005b838110156103fe5781810151838201526020016103e6565b50505050905090810190601f16801561042b5780820380516001836020036101000a031916815260200191505b5085810384528851815288516020918201918a019080838360005b8381101561045e578181015183820152602001610446565b50505050905090810190601f16801561048b5780820380516001836020036101000a031916815260200191505b50858103835287518152875160209182019189019080838360005b838110156104be5781810151838201526020016104a6565b50505050905090810190601f1680156104eb5780820380516001836020036101000a031916815260200191505b50858103825286518152865160209182019188019080838360005b8381101561051e578181015183820152602001610506565b50505050905090810190601f16801561054b5780820380516001836020036101000a031916815260200191505b509c5050505050505050505050505060405180910390f35b34801561056f57600080fd5b50610184600160a060020a0360043516610eb9565b34801561059057600080fd5b50610184610ed6565b3480156105a557600080fd5b506101ef600160a060020a0360043516610edf565b3480156105c657600080fd5b506105cf610ef2565b60408051600160a060020a039092168252519081900360200190f35b3480156105f757600080fd5b50610184600160a060020a0360043516610f02565b34801561061857600080fd5b506101ef600160a060020a0360043516610f1f565b34801561063957600080fd5b506101ef610f32565b34801561064e57600080fd5b50610184600435610f43565b34801561066657600080fd5b506101ef600160a060020a0360043516610fff565b34801561068757600080fd5b50604080516020600460443581810135601f81018490048402850184019095528484526101849482359460248035600160a060020a03169536959460649492019190819084018382808284375050604080516020601f89358b018035918201839004830284018301909452808352979a99988101979196509182019450925082915084018382808284375050604080516020601f89358b018035918201839004830284018301909452808352979a99988101979196509182019450925082915084018382808284375050604080516020601f89358b018035918201839004830284018301909452808352979a99988101979196509182019450925082915084018382808284375050604080516020601f89358b018035918201839004830284018301909452808352979a9998810197919650918201945092508291508401838280828437509497506110129650505050505050565b3480156107e857600080fd5b5061018460043561119b565b34801561080057600080fd5b50610184611257565b610184600435611260565b34801561082057600080fd5b50610184600160a060020a03600435166113e9565b34801561084157600080fd5b50610184600435611409565b34801561085957600080fd5b506101846004356114c7565b61086e33610edf565b151561087957600080fd5b6108828161158a565b50565b8160026000828152600860205260409020600b015460ff1660078111156108a857fe5b146108b257600080fd5b6108bb33610fff565b15156108c657600080fd5b600083815260086020526040902060030154600160a060020a03163381146108ed57600080fd5b600084815260086020908152604091829020600a8101869055600b01805460ff19166003179055815186815291517fa96ae0fc3224ebd79eebfe54bd130cc9cb94416cddd1f2386115e00b725324689281900390910190a150505050565b600554600160a060020a031633141561096c57600554600160a060020a0316ff5b565b80600080828152600860205260409020600b015460ff16600781111561099057fe5b1461099a57600080fd5b6109a333610fff565b15156109ae57600080fd5b600082815260086020526040902060030154600160a060020a03163381146109d557600080fd5b600083815260086020908152604091829020600b01805460ff19166001179055815185815291517f5afe3b1bf87069693c075da5c22a98d63d1aef98a30dbbe538d0781a98b77ee59281900390910190a1505050565b6000610a3e60048363ffffffff6115d216565b92915050565b61096c33611609565b61096c33611651565b600081815260086020818152604080842080549381015460099091018054835160026001831615610100026000190190921691909104601f810186900486028201860190945283815294958795929460609491938493849384938493929190830182828015610b065780601f10610adb57610100808354040283529160200191610b06565b820191906000526020600020905b815481529060010190602001808311610ae957829003601f168201915b50505060008d8152600860205260409020600a810154600b9091015493995097505060ff90911690506007811115610b3a57fe5b60008b8152600860205260409020600b810154600c820154600d90920154929650600160a060020a036101009091048116955090811693501690509193959799909294969850565b600554600160a060020a03163314610b9957600080fd5b60008054604051600160a060020a03909116907f5c486528ec3e3f0ea91181cff8116f02bfa350e03b8b6f12e00765adbb5af85c908390a36000805473ffffffffffffffffffffffffffffffffffffffff19169055565b610bf933610f1f565b1515610c0457600080fd5b61088281611699565b60008181526008602090815260409182902080546002808301546003840154600490940180548751601f600019600184161561010002019092169490940490810187900487028401870190975286835292958795600160a060020a03928316959092169360609384938493849391830182828015610ccc5780601f10610ca157610100808354040283529160200191610ccc565b820191906000526020600020905b815481529060010190602001808311610caf57829003601f168201915b50505060008c8152600860209081526040918290206005018054835160026001831615610100026000190190921691909104601f81018490048402820184019094528381529599509350909150830182828015610d6a5780601f10610d3f57610100808354040283529160200191610d6a565b820191906000526020600020905b815481529060010190602001808311610d4d57829003601f168201915b50505060008c8152600860209081526040918290206006018054835160026001831615610100026000190190921691909104601f81018490048402820184019094528381529598509350909150830182828015610e085780601f10610ddd57610100808354040283529160200191610e08565b820191906000526020600020905b815481529060010190602001808311610deb57829003601f168201915b50505060008c8152600860209081526040918290206007018054835160026001831615610100026000190190921691909104601f81018490048402820184019094528381529597509350909150830182828015610ea65780601f10610e7b57610100808354040283529160200191610ea6565b820191906000526020600020905b815481529060010190602001808311610e8957829003601f168201915b5093945050505050919395975091939597565b610ec233610fff565b1515610ecd57600080fd5b610882816116e1565b61096c33611729565b6000610a3e60018363ffffffff6115d216565b600054600160a060020a03165b90565b610f0b33610a2b565b1515610f1657600080fd5b61088281611771565b6000610a3e60028363ffffffff6115d216565b600054600160a060020a0316331490565b8060056000828152600860205260409020600b015460ff166007811115610f6657fe5b14610f7057600080fd5b610f7933610a2b565b1515610f8457600080fd5b6000828152600860205260409020600c8101805473ffffffffffffffffffffffffffffffffffffffff191633179055600b0180546006919060ff191660018302179055506040805183815290517fa8142743f8f70a4c26f3691cf4ed59718381fb2f18070ec52be1f1022d8555579181900360200190a15050565b6000610a3e60038363ffffffff6115d216565b61101b33610fff565b151561102657600080fd5b60075460008881526008602090815260409091209182556006546001830155600554600283018054600160a060020a0392831673ffffffffffffffffffffffffffffffffffffffff1991821617909155600384018054909116918a16919091179055865161109a9260040191880190611918565b50600087815260086020908152604090912085516110c092600590920191870190611918565b50600087815260086020908152604090912084516110e692600690920191860190611918565b506000878152600860209081526040909120835161110c92600790920191850190611918565b506007546000888152600860208181526040909220928a0190830155825161113a9260090191840190611918565b50600087815260086020908152604091829020600b01805460ff19169055600780546001019055815189815291517f8e55ccfc9778ff8eba1646d765cf1982537ce0f9257054a17b48aad7452501839281900390910190a150505050505050565b8060066000828152600860205260409020600b015460ff1660078111156111be57fe5b146111c857600080fd5b6111d133610edf565b15156111dc57600080fd5b6000828152600860205260409020600d8101805473ffffffffffffffffffffffffffffffffffffffff191633179055600b0180546007919060ff191660018302179055506040805183815290517f653d56639fee6b566a5c804764e9689de38645f0b733df89a36a1b7b42173dd89181900360200190a15050565b61096c336117b9565b8060036000828152600860205260409020600b015460ff16600781111561128357fe5b1461128d57600080fd5b813481111561129b57600080fd5b600083815260086020526040808220600a810154600d909101549151869391923484900392600160a060020a039091169183156108fc0291849190818181858888f193505050501580156112f3573d6000803e3d6000fd5b506112fd33610f1f565b151561130857600080fd5b60008681526008602052604080822060028101805473ffffffffffffffffffffffffffffffffffffffff191633908117909155600b8201805460ff1961010090930274ffffffffffffffffffffffffffffffffffffffff0019909116179190911660041790556003810154600a909101549151600160a060020a03909116926108fc831502929190818181858888f193505050501580156113ad573d6000803e3d6000fd5b506040805187815290517f92f64ca637d023f354075a4be751b169c1a8a9ccb6d33cdd0cb35205439957279181900360200190a1505050505050565b600554600160a060020a0316331461140057600080fd5b61088281611801565b8060016000828152600860205260409020600b015460ff16600781111561142c57fe5b1461143657600080fd5b61143f33610fff565b151561144a57600080fd5b600082815260086020526040902060030154600160a060020a031633811461147157600080fd5b600083815260086020908152604091829020600b01805460ff19166002179055815185815291517f9b3b66e2380b690bae22c73ef1428fb0c91e72fe14a4b6defa13035214187aff9281900390910190a1505050565b8060046000828152600860205260409020600b015460ff1660078111156114ea57fe5b146114f457600080fd5b6000828152600860205260409020600b01546101009004600160a060020a031633811461152057600080fd5b61152933610f1f565b151561153457600080fd5b600083815260086020908152604091829020600b01805460ff19166005179055815185815291517ff00b9a5725b80c54016f42114f6ed7792d22eecb116011c4afac29c57bef6c959281900390910190a1505050565b61159b60018263ffffffff61187e16565b604051600160a060020a038216907fc86b28215d4a96680e6a28ffaa92132d72fa991850a9f8662bf92f31223ceec990600090a250565b6000600160a060020a03821615156115e957600080fd5b50600160a060020a03166000908152602091909152604090205460ff1690565b61161a60018263ffffffff6118cc16565b604051600160a060020a038216907f6c19023bcbe71ecd5b099d6f3f3f41fa9c3fb445261a361debb82c5e95d29ded90600090a250565b61166260023363ffffffff6118cc16565b604051600160a060020a038216907fb2c925a398817eb94dd337a35cf5a5033862775a0ece4805f1892b43ee778ca190600090a250565b6116aa60028263ffffffff61187e16565b604051600160a060020a038216907fe52ca811996e29b62f0207ddc129a174b72947fa2d113ef5f214f1b7dcee260d90600090a250565b6116f260038263ffffffff61187e16565b604051600160a060020a038216907f2e0ded4123377a3c2bc9a26f1717655a129e2f20752924d42e730ec89c83dbd090600090a250565b61173a60038263ffffffff6118cc16565b604051600160a060020a038216907fa5e0f060af304ab17dd418c7927e3da3ae7868189bf387aee09ab179ccc572f290600090a250565b61178260048263ffffffff61187e16565b604051600160a060020a038216907f71ae26cad02663e3d92efd6ec56031a80d74a20c0ab4183faa8bf262261c9baa90600090a250565b6117ca60043363ffffffff6118cc16565b604051600160a060020a038216907fdb7176e79cffef81cb01767dd0447a0b24bb72ca9778d4b245581086b2a7e6db90600090a250565b600160a060020a038116151561181657600080fd5b60008054604051600160a060020a03808516939216917f5c486528ec3e3f0ea91181cff8116f02bfa350e03b8b6f12e00765adbb5af85c91a36000805473ffffffffffffffffffffffffffffffffffffffff1916600160a060020a0392909216919091179055565b600160a060020a038116151561189357600080fd5b61189d82826115d2565b156118a757600080fd5b600160a060020a0316600090815260209190915260409020805460ff19166001179055565b600160a060020a03811615156118e157600080fd5b6118eb82826115d2565b15156118f657600080fd5b600160a060020a0316600090815260209190915260409020805460ff19169055565b828054600181600116156101000203166002900490600052602060002090601f016020900481019282601f1061195957805160ff1916838001178555611986565b82800160010185558215611986579182015b8281111561198657825182559160200191906001019061196b565b50611992929150611996565b5090565b610eff91905b80821115611992576000815560010161199c5600a165627a7a7230582072bf7b1576d1975237aae00b8a5d07902562a9f2b0ccf813c801db1502b9d6ca0029",
    "sourcePath": "c:/Users/Rafael Muraro/OneDrive/Documentos/cursos/bitcoin/project3/nd1309-Project-6b-Example-Template-master/nd1309-Project-6b-Example-Template-master/project-6/contracts/coffeebase/SupplyChain.sol",
    "compiler": {
        "name": "solc",
        "version": "0.4.24+commit.e67f0147"
    },
    "functionHashes": {
        "addConsumer(address)": "112940f9",
        "addDistributor(address)": "7250e224",
        "addFarmer(address)": "80c3f96d",
        "addRetailer(address)": "8ec4f505",
        "buyItem(uint256)": "e7fb74c7",
        "fetchItemBufferOne(uint256)": "77c45913",
        "fetchItemBufferTwo(uint256)": "66225ff9",
        "getOwner()": "893d20e8",
        "harvestItem(uint256,address,string,string,string,string,string)": "bdd8a6a8",
        "isConsumer(address)": "834ff739",
        "isDistributor(address)": "8f0c86fa",
        "isFarmer(address)": "b9429069",
        "isOwner()": "8f32d59b",
        "isRetailer(address)": "5da09b88",
        "kill()": "41c0e1b5",
        "packItem(uint256)": "f30fc480",
        "processItem(uint256)": "49dae766",
        "purchaseItem(uint256)": "d38ea5bf",
        "receiveItem(uint256)": "a26be999",
        "renounceConsumer()": "61e6982d",
        "renounceDistributor()": "644241db",
        "renounceFarmer()": "80fc0ce4",
        "renounceOwnership()": "715018a6",
        "renounceRetailer()": "db0e6a2f",
        "sellItem(uint256,uint256)": "2d923561",
        "shipItem(uint256)": "f61c899a",
        "transferOwnership(address)": "f2fde38b"
    },
    "gasEstimates": {
        "creation": {
            "codeDepositCost": "1324000",
            "executionCost": "infinite",
            "totalCost": "infinite"
        },
        "external": {
            "addConsumer(address)": "infinite",
            "addDistributor(address)": "infinite",
            "addFarmer(address)": "infinite",
            "addRetailer(address)": "infinite",
            "buyItem(uint256)": "infinite",
            "fetchItemBufferOne(uint256)": "infinite",
            "fetchItemBufferTwo(uint256)": "infinite",
            "getOwner()": "846",
            "harvestItem(uint256,address,string,string,string,string,string)": "infinite",
            "isConsumer(address)": "infinite",
            "isDistributor(address)": "infinite",
            "isFarmer(address)": "infinite",
            "isOwner()": "844",
            "isRetailer(address)": "infinite",
            "kill()": "30742",
            "packItem(uint256)": "infinite",
            "processItem(uint256)": "infinite",
            "purchaseItem(uint256)": "infinite",
            "receiveItem(uint256)": "infinite",
            "renounceConsumer()": "infinite",
            "renounceDistributor()": "infinite",
            "renounceFarmer()": "infinite",
            "renounceOwnership()": "22629",
            "renounceRetailer()": "infinite",
            "sellItem(uint256,uint256)": "infinite",
            "shipItem(uint256)": "infinite",
            "transferOwnership(address)": "23288"
        }
    }
}